{
  "_format": "hh-sol-artifact-1",
  "contractName": "CharityFund",
  "sourceName": "contracts/CharityFund.sol",
  "abi": [
    {
      "inputs": [],
      "stateMutability": "nonpayable",
      "type": "constructor"
    },
    {
      "anonymous": false,
      "inputs": [
        {
          "indexed": true,
          "internalType": "address",
          "name": "donor",
          "type": "address"
        },
        {
          "indexed": false,
          "internalType": "uint256",
          "name": "amount",
          "type": "uint256"
        }
      ],
      "name": "DonationReceived",
      "type": "event"
    },
    {
      "anonymous": false,
      "inputs": [
        {
          "indexed": true,
          "internalType": "address",
          "name": "donor",
          "type": "address"
        },
        {
          "indexed": false,
          "internalType": "uint256",
          "name": "amount",
          "type": "uint256"
        }
      ],
      "name": "DonationRefunded",
      "type": "event"
    },
    {
      "anonymous": false,
      "inputs": [
        {
          "indexed": true,
          "internalType": "address",
          "name": "owner",
          "type": "address"
        },
        {
          "indexed": false,
          "internalType": "uint256",
          "name": "amount",
          "type": "uint256"
        }
      ],
      "name": "FundsWithdrawn",
      "type": "event"
    },
    {
      "anonymous": false,
      "inputs": [
        {
          "indexed": true,
          "internalType": "address",
          "name": "oldOwner",
          "type": "address"
        },
        {
          "indexed": true,
          "internalType": "address",
          "name": "newOwner",
          "type": "address"
        }
      ],
      "name": "OwnerChanged",
      "type": "event"
    },
    {
      "inputs": [
        {
          "internalType": "address",
          "name": "newOwner",
          "type": "address"
        }
      ],
      "name": "changeOwner",
      "outputs": [],
      "stateMutability": "nonpayable",
      "type": "function"
    },
    {
      "inputs": [],
      "name": "donate",
      "outputs": [],
      "stateMutability": "payable",
      "type": "function"
    },
    {
      "inputs": [
        {
          "internalType": "address",
          "name": "",
          "type": "address"
        }
      ],
      "name": "donations",
      "outputs": [
        {
          "internalType": "uint256",
          "name": "",
          "type": "uint256"
        }
      ],
      "stateMutability": "view",
      "type": "function"
    },
    {
      "inputs": [],
      "name": "getBalance",
      "outputs": [
        {
          "internalType": "uint256",
          "name": "",
          "type": "uint256"
        }
      ],
      "stateMutability": "view",
      "type": "function"
    },
    {
      "inputs": [
        {
          "internalType": "address",
          "name": "donor",
          "type": "address"
        }
      ],
      "name": "getDonorContribution",
      "outputs": [
        {
          "internalType": "uint256",
          "name": "",
          "type": "uint256"
        }
      ],
      "stateMutability": "view",
      "type": "function"
    },
    {
      "inputs": [],
      "name": "owner",
      "outputs": [
        {
          "internalType": "address",
          "name": "",
          "type": "address"
        }
      ],
      "stateMutability": "view",
      "type": "function"
    },
    {
      "inputs": [],
      "name": "refundDonation",
      "outputs": [],
      "stateMutability": "nonpayable",
      "type": "function"
    },
    {
      "inputs": [],
      "name": "totalDonations",
      "outputs": [
        {
          "internalType": "uint256",
          "name": "",
          "type": "uint256"
        }
      ],
      "stateMutability": "view",
      "type": "function"
    },
    {
      "inputs": [],
      "name": "withdraw",
      "outputs": [],
      "stateMutability": "nonpayable",
      "type": "function"
    }
  ],
  "bytecode": "0x608060405234801561001057600080fd5b50336000806101000a81548173ffffffffffffffffffffffffffffffffffffffff021916908373ffffffffffffffffffffffffffffffffffffffff160217905550610dbc806100606000396000f3fe6080604052600436106100865760003560e01c8063a6f9dae111610059578063a6f9dae11461010f578063cc6cb19a14610138578063db85478c14610175578063de2ed893146101b2578063ed88c68e146101dd57610086565b806312065fe01461008b5780633ccfd60b146100b657806367b65c8c146100cd5780638da5cb5b146100e4575b600080fd5b34801561009757600080fd5b506100a06101e7565b6040516100ad919061090f565b60405180910390f35b3480156100c257600080fd5b506100cb6101ef565b005b3480156100d957600080fd5b506100e261039d565b005b3480156100f057600080fd5b506100f961051a565b604051610106919061096b565b60405180910390f35b34801561011b57600080fd5b50610136600480360381019061013191906109b7565b61053e565b005b34801561014457600080fd5b5061015f600480360381019061015a91906109b7565b61078d565b60405161016c919061090f565b60405180910390f35b34801561018157600080fd5b5061019c600480360381019061019791906109b7565b6107a5565b6040516101a9919061090f565b60405180910390f35b3480156101be57600080fd5b506101c76107ee565b6040516101d4919061090f565b60405180910390f35b6101e56107f4565b005b600047905090565b60008054906101000a900473ffffffffffffffffffffffffffffffffffffffff1673ffffffffffffffffffffffffffffffffffffffff163373ffffffffffffffffffffffffffffffffffffffff161461027d576040517f08c379a000000000000000000000000000000000000000000000000000000000815260040161027490610a67565b60405180910390fd5b6000479050600081116102c5576040517f08c379a00000000000000000000000000000000000000000000000000000000081526004016102bc90610ad3565b60405180910390fd5b60008054906101000a900473ffffffffffffffffffffffffffffffffffffffff1673ffffffffffffffffffffffffffffffffffffffff166108fc829081150290604051600060405180830381858888f1935050505015801561032b573d6000803e3d6000fd5b5060008054906101000a900473ffffffffffffffffffffffffffffffffffffffff1673ffffffffffffffffffffffffffffffffffffffff167feaff4b37086828766ad3268786972c0cd24259d4c87a80f9d3963a3c3d999b0d82604051610392919061090f565b60405180910390a250565b6000600260003373ffffffffffffffffffffffffffffffffffffffff1673ffffffffffffffffffffffffffffffffffffffff16815260200190815260200160002054905060008111610424576040517f08c379a000000000000000000000000000000000000000000000000000000000815260040161041b90610b3f565b60405180910390fd5b6000600260003373ffffffffffffffffffffffffffffffffffffffff1673ffffffffffffffffffffffffffffffffffffffff16815260200190815260200160002081905550806001600082825461047b9190610b8e565b925050819055503373ffffffffffffffffffffffffffffffffffffffff166108fc829081150290604051600060405180830381858888f193505050501580156104c8573d6000803e3d6000fd5b503373ffffffffffffffffffffffffffffffffffffffff167f1c30fc1a279d916ed03d77161919bfc0372ef9aecc4220c1aac735e591f4faab8260405161050f919061090f565b60405180910390a250565b60008054906101000a900473ffffffffffffffffffffffffffffffffffffffff1681565b60008054906101000a900473ffffffffffffffffffffffffffffffffffffffff1673ffffffffffffffffffffffffffffffffffffffff163373ffffffffffffffffffffffffffffffffffffffff16146105cc576040517f08c379a00000000000000000000000000000000000000000000000000000000081526004016105c390610a67565b60405180910390fd5b600073ffffffffffffffffffffffffffffffffffffffff168173ffffffffffffffffffffffffffffffffffffffff160361063b576040517f08c379a000000000000000000000000000000000000000000000000000000000815260040161063290610c0e565b60405180910390fd5b60008054906101000a900473ffffffffffffffffffffffffffffffffffffffff1673ffffffffffffffffffffffffffffffffffffffff168173ffffffffffffffffffffffffffffffffffffffff16036106c9576040517f08c379a00000000000000000000000000000000000000000000000000000000081526004016106c090610ca0565b60405180910390fd5b60008060009054906101000a900473ffffffffffffffffffffffffffffffffffffffff169050816000806101000a81548173ffffffffffffffffffffffffffffffffffffffff021916908373ffffffffffffffffffffffffffffffffffffffff1602179055508173ffffffffffffffffffffffffffffffffffffffff168173ffffffffffffffffffffffffffffffffffffffff167fb532073b38c83145e3e5135377a08bf9aab55bc0fd7c1179cd4fb995d2a5159c60405160405180910390a35050565b60026020528060005260406000206000915090505481565b6000600260008373ffffffffffffffffffffffffffffffffffffffff1673ffffffffffffffffffffffffffffffffffffffff168152602001908152602001600020549050919050565b60015481565b60003411610837576040517f08c379a000000000000000000000000000000000000000000000000000000000815260040161082e90610d32565b60405180910390fd5b34600260003373ffffffffffffffffffffffffffffffffffffffff1673ffffffffffffffffffffffffffffffffffffffff16815260200190815260200160002060008282546108869190610d52565b92505081905550346001600082825461089f9190610d52565b925050819055503373ffffffffffffffffffffffffffffffffffffffff167f264f630d9efa0d07053a31163641d9fcc0adafc9d9e76f1c37c2ce3a558d2c52346040516108ec919061090f565b60405180910390a2565b6000819050919050565b610909816108f6565b82525050565b60006020820190506109246000830184610900565b92915050565b600073ffffffffffffffffffffffffffffffffffffffff82169050919050565b60006109558261092a565b9050919050565b6109658161094a565b82525050565b6000602082019050610980600083018461095c565b92915050565b600080fd5b6109948161094a565b811461099f57600080fd5b50565b6000813590506109b18161098b565b92915050565b6000602082840312156109cd576109cc610986565b5b60006109db848285016109a2565b91505092915050565b600082825260208201905092915050565b7f4f6e6c7920746865206f776e65722063616e20706572666f726d20746869732060008201527f616374696f6e0000000000000000000000000000000000000000000000000000602082015250565b6000610a516026836109e4565b9150610a5c826109f5565b604082019050919050565b60006020820190508181036000830152610a8081610a44565b9050919050565b7f4e6f2066756e647320746f207769746864726177000000000000000000000000600082015250565b6000610abd6014836109e4565b9150610ac882610a87565b602082019050919050565b60006020820190508181036000830152610aec81610ab0565b9050919050565b7f4e6f20646f6e6174696f6e7320746f20726566756e6400000000000000000000600082015250565b6000610b296016836109e4565b9150610b3482610af3565b602082019050919050565b60006020820190508181036000830152610b5881610b1c565b9050919050565b7f4e487b7100000000000000000000000000000000000000000000000000000000600052601160045260246000fd5b6000610b99826108f6565b9150610ba4836108f6565b9250828203905081811115610bbc57610bbb610b5f565b5b92915050565b7f496e76616c6964206e6577206f776e6572206164647265737300000000000000600082015250565b6000610bf86019836109e4565b9150610c0382610bc2565b602082019050919050565b60006020820190508181036000830152610c2781610beb565b9050919050565b7f4e6577206f776e6572206973207468652073616d65206173207468652063757260008201527f72656e74206f776e657200000000000000000000000000000000000000000000602082015250565b6000610c8a602a836109e4565b9150610c9582610c2e565b604082019050919050565b60006020820190508181036000830152610cb981610c7d565b9050919050565b7f446f6e6174696f6e206d7573742062652067726561746572207468616e207a6560008201527f726f000000000000000000000000000000000000000000000000000000000000602082015250565b6000610d1c6022836109e4565b9150610d2782610cc0565b604082019050919050565b60006020820190508181036000830152610d4b81610d0f565b9050919050565b6000610d5d826108f6565b9150610d68836108f6565b9250828201905080821115610d8057610d7f610b5f565b5b9291505056fea26469706673582212209a75839d1a7506725cf9f06df1251f3e45504e17c6de32000799bfece08d9fdc64736f6c63430008110033",
  "linkReferences": {},
  "deployedLinkReferences": {}
}